:020000040800F2
:10000000500400202D110008491100084D1100086E
:100010005111000855110008591100080000000096
:100020000000000000000000000000005D1100085A
:10003000611100080000000065110008511000085F
:10004000691100086D110008711100087511000890
:10005000791100087D110008811100088511000840
:10006000891100088D1100089111000895110008F0
:10007000991100089D110008A1110008A5110008A0
:10008000A9110008AD110008B1110008B511000850
:10009000B9110008BD110008C1110008C511000800
:1000A000C9110008CD110008D1110008D5110008B0
:1000B000D9110008DD110008E1110008E511000860
:1000C000E9110008ED110008F1110008F511000810
:1000D000F9110008FD1100080112000805120008BE
:1000E000091200080D12000811120008151200086C
:1000F000191200081D12000821120008251200081C
:10010000291200082D1200083112000835120008CB
:10011000391200083D1200085F1000084112000863
:1001200045120008491200084D120008511200083B
:1001300055120008000000000000000059120008DD
:100140005D120008611200086512000869120008BB
:100150006D1200087112000875120008791200086B
:100160007D1200088112000885120008891200081B
:100170008D1200089112000895120008000000007E
:1001800000000000991200080000000000000000BC
:100190009D1200080000000000000000A1120008ED
:1001A000000000000000000000000000A512000890
:1001B000A9120008AD120008B1120008B51200081B
:1001C000B91200080020086000F0D4B92DE95841A8
:1001D000DFF89443DFF888636068DFF8888300F015
:1001E0000C00042804D0082804D00C2815D027E0DF
:1001F000404626E000F027F847BFC0F38816A8FB6A
:100200000601C0F38818A6FB080100F0B9F92168BF
:10021000C1F30141491C49000FE000F014F847BF49
:10022000C0F38816A8FB0601C0F38818A6FB0801D6
:1002300000F0A6F92168C1F30271B0FBF1F000E013
:100240003046BDE8528100232268206841022068C0
:1002500002F03F0270472DE9F8430646BA4D307868
:10026000C10746D500F074F904280DD000F070F9EC
:10027000082802D16868410206D400F069F90C2808
:100280000BD16868410208D52968880331D57068A8
:10029000002840F0B380012053E17068B0F5803F42
:1002A00006D0B0F5A02F296807D141F4802129603C
:1002B000286840F48030286006E021F4803129600D
:1002C0002A6822F480222A60706868B100F052F92E
:1002D00004462968880300F1918000F04BF9001B67
:1002E0006528F6D303202CE100F044F90446286881
:1002F000810340F1838000F03DF9001B6528F6D3AF
:10030000F0E700F037F9001B022840F2AA80E9E785
:10031000F06870B10121396000F02CF904462868BA
:10032000810700F1CE8000F025F9001B0228F6D9E4
:10033000D8E7386000F01EF904462868810760D5C8
:1003400000F018F9001B0228F7D9CBE7FFF73BFFB5
:100350000446686F810779D500F00CF9001B02286C
:10036000F7D9BFE70528286F06D140F004002867B9
:10037000286F40F0010005E0400840002867286F22
:1003800020F00400286741F28938B06868B100F0B5
:10039000F1F88146286F810700F1A08000F0EAF8AB
:1003A000A0EB09004045F5D39CE700F0E3F8814657
:1003B000286F810740F1928000F0DCF8A0EB090083
:1003C0004045F5D38EE700F0D5F8001B022840F237
:1003D000988087E700F0CEF8001B022840F2AC803E
:1003E00080E700F0B9F804462868810140F1A88050
:1003F00000F0C0F8001B0228F6D973E730785B4F95
:10040000810721D5A86810F00C0F0FD000F0A0F8DC
:10041000082802D16868410208D500F099F80C2834
:100420007FF476AF686841023FF572AF29688807AC
:1004300003D5F06801287FF42EAF2968306921F0D8
:10044000F80141EAC0012960317808070DD57069CB
:10045000474900283FF47AAF01220A6000F08AF889
:100460000446686F81077FF54CAF317848073AD56D
:10047000286C0024C1000AD400940124286C40F0A8
:1004800080502864286C00F0805000900098DFF8BD
:10049000BC80D8F80010C8051BD4D8F8000040F480
:1004A0008070C8F8000000F065F88146D8F80010A8
:1004B000C8050ED400F05EF8A0EB09000228F5D9BB
:1004C00010E72868316920F0F80040EAC100286090
:1004D000BAE7B06801287FF445AF49E71CB1286C42
:1004E00020F080502864B06950B3A96801F00C0175
:1004F00008293FF4D0AE02287FF473AF00F02CF847
:100500000446286881013FF55EAFF169306AB26A3E
:100510000143706A921ED20341EA8011120CF06A04
:1005200041EA0241326B41EA006141EA02716960CD
:10053000012000F012F80446286881017FF54AAFD7
:100540000020BDE8F2830000003802400070004047
:10055000A86800F00C0070470020386600F00AB868
:100560000024F40000127A000438024000004742E0
:10057000800E474201484068704700BF00000020DD
:100580001B4213D1094236D12AB18446B0FBF2F0A6
:1005900002FB10C2704700F06BB8FCD300220023AE
:1005A00070470B000200002100207047904271EB61
:1005B000030CF6D370B5B1FA81F4B3FA83F52C1BB2
:1005C000A340C4F1200532FA05F63343A2405FF0A0
:1005D0000046E64002E05B085FEA3202841A71EBF3
:1005E000030524BF204629467641F4D302000B00C0
:1005F0003000002170BD012ACFD970B5140C20D075
:10060000B1FA81F4B2FA82F5C4F120046419B4F1AC
:100610002006D6D3B2405FF00044F440002502E04B
:1006200052085FEA3303C61A71EB020E24BF30464C
:10063000714664416D41F3D302000B002000290094
:1006400070BD0C46B1FBF2F102FB11452D0445EAE9
:100650001045B5FBF2F402FB145580B240EA0545A3
:10066000B5FBF2F002FB105240EA044070BD0000FE
:100670007047000038B5040001D1012032BD00F000
:100680001FF818B900F018F800F067F90AE00068E0
:10069000C16841F00101C160026842F001020260DC
:1006A0000020704702206870211D206800F0B0F81B
:1006B00001206870002032BD00212970204670475B
:1006C00004F138056878704710B504462068016960
:1006D0008A0715D5C1688A0712D56FF00202026138
:1006E00001212176806910F0030F204602D000F02E
:1006F00053F903E000F051F900F087F8002020766C
:10070000206801694A0715D5C1684A0712D56FF0FC
:100710000402026102212176806910F4407F2046A4
:1007200002D000F039F903E000F037F900F06DF87D
:1007300000202076206801690A0715D5C1680A07DC
:1007400012D56FF00802026104212176C06910F011
:10075000030F204602D000F01FF903E000F01DF95E
:1007600000F053F80020207620680169CA0615D5EC
:10077000C168CA0612D56FF0100202610821217605
:10078000C06910F4407F204602D000F005F903E074
:1007900000F003F900F039F80020207620680169A4
:1007A000CA0708D5C168CA0705D56FF00102026102
:1007B000204600F0F3F8206801690A0608D5C168F0
:1007C0000A0605D56FF080020261204600F0E7F8C6
:1007D000206801694A0608D5C1684A0605D56FF048
:1007E00040020261204600F0DBF8206801698A06B9
:1007F0000AD5C1688A0607D56FF02002026120463B
:10080000BDE8104000F0CDB810BD204600F0CAB8D9
:10081000F0B5234C0568234B234E244FDFF890C0DE
:10082000A04218BFB0F1804F07D0604518BFB84252
:1008300003D0B04218BF98420DD14A6825F0700528
:100840001543A04218BFB0F1804F17D060451CBFC0
:10085000B842B04212D098421CBF164A90420DD006
:10086000154A90421CBF154A904207D0144A904244
:100870001FBF144A9042144A904203D1CA6825F41B
:10088000407515430560A0428A68C2620A688262A8
:1008900012BF98420969016301214161F0BD000066
:1008A0000000014000040140000C0040000800402E
:1008B0000004004000400140004401400048014065
:1008C00000180040001C00400020004080B50020BF
:1008D000009000222E48416841F480414160416807
:1008E00001F48041009100990092036843F0805325
:1008F0000360006800F0805000900098072000F02E
:1009000062F8002200216FF00B0000F069F800226D
:1009100000216FF00A0000F063F8002200216FF060
:10092000090000F05DF8002200216FF0040000F0E3
:1009300057F8002200216FF0030000F051F8002268
:1009400000216FF0010000F04BF8BDE808400022E4
:1009500000214FF0FF3000F043B800680D49884295
:1009600000D0704780B5002109480091026842F02C
:10097000100202600022006800F010000090009851
:10098000362000F02DF8BDE80240362000F045B8D2
:100990004038024000100040704770477047704771
:1009A00070477047704700000901002881B006D5E4
:1009B0002F4A00F00F00104400F8041C01E02D4AFB
:1009C000115401B070472C4A13684FF6FF01000222
:1009D0000B4000F4E060184328490843106070475A
:1009E00038B5254B1C68C4F30223C3F10704052C5A
:1009F00028BF04241D1D072D34BF0023DB1E012545
:100A000005FA04F4641E2140994005FA03F35B1EC5
:100A10001A401143BDE83440C6E7012200F01F012F
:100A2000174BFFE78A40400943F82020704710B574
:100A3000401EB0F1807F01D3012010BD114C6060D9
:100A40000F214FF0FF30FFF7AFFF0022A260072019
:100A50002060002010BD04280A4904D1086840F035
:100A60000400086070470A6822F004020A607047B8
:100A700018ED00E000E400E00CED00E00000FA05F5
:100A800000E100E010E000E000F000B87047000076
:100A90002DE9F84F4FF0000E674CDFF8A081DFF82A
:100AA000A0914FF00F0A02460B4601211D6801FA82
:100AB0000EF10D408D4240F0AD805E68022E18BFF1
:100AC000122E4FEA8E0012D14FEADE0602EB860CA0
:100AD00000F01C06DCF820700AFA06FB27EA0B0778
:100AE000D3F810B00BFA06F63E43CCF820604FEA7C
:100AF0004E0C0326176893F804B006FA0CF6F6437A
:100B00000BF0030B37400BFA0CFB4BEA070717609F
:100B10005F68012F18BF022F03D0112F18BF122FAB
:100B200012D19768D3F80CB037400BFA0CFB4BEAA4
:100B300007079760576827EA01015F68C7F3001746
:100B400007FA0EF739435160D1680E40996801FAEF
:100B50000CF13143D1605968C9005BD5002600967D
:100B600000F00C00D9F8001041F48041C9F80010E1
:100B7000D9F8006006F4804600960AFA00F600995B
:100B80004FEA9E0158F82170B7432E4EB24208BF7B
:100B900000261DD02C4EB24208BF012618D02B4E85
:100BA000B24208BF022613D0294EB24208BF032624
:100BB0000ED0284EB24208BF042609D0264EB242BB
:100BC00008BF052604D0254EB2420CBF06260726D4
:100BD00006FA00F0384348F82100E84321685E68CF
:100BE0000140F60348BF2943216061685E68014007
:100BF000B60348BF29436160A1685E680140F60200
:100C000048BF2943A160E16801405868800248BF9D
:100C10002943E1600EF1010EBEF10F0F7FF645AFE3
:100C2000BDE8F18F81B002B90904816101B070475C
:100C30004269514041617047003C01400838014021
:100C40004438024000000240000402400008024014
:100C5000000C024000100240001402400018024044
:100C600010B586B000F0B8F800F04FF80020009002
:100C7000514C5248016841F004010160026802F0E1
:100C8000040200920022009900922021036843F0A0
:100C900001030360006800F0010000900098204606
:100CA000FFF7C0FF4FF4005001900020444902912B
:100CB000039001A94348FFF7EBFE2020019001219A
:100CC000002002910390049001A92046FFF7E0FE66
:100CD0003D4C3E48206042F20F7060600020A060F2
:100CE00042F2D000E0602046FFF7C4FC00B1FEE70E
:100CF0000021009001912046694600F087F800B17C
:100D0000FEE72046FFF7C3FCFEE700B593B00020E6
:100D100000902F48016841F0805101600021006877
:100D200000F08050009000982A480091022102684B
:100D300022F4404242F4804202600122006800F442
:100D4000404000900098069110200A900C910020DD
:100D50000D9010214FF4A8700F900E9102200421E5
:100D6000119012900992109106A8FFF774FA00B141
:100D7000FEE70F2102200191029000214FF48050E4
:100D800003910490059101A8022100F065F800B1DB
:100D9000FEE700F0E6F84FF47A71B0FBF1F0FFF7F0
:100DA00046FE0420FFF757FE002200214FF0FF30DF
:100DB000FFF716FE13B000BD0000024030380240BD
:100DC0000000211000080240100000200010004028
:100DD000403802400070004080B50B48016841F483
:100DE00000710160026842F480620260016841F4AF
:100DF000807101600320FFF7E6FD002000F0BCF8E1
:100E0000FFF764FD002002BD003C024030B500F158
:100E100038031A78012A01D1022030BD01241C7048
:100E200002225A700268546824F070045460046806
:100E300065680A68154365600268946824F0800458
:100E40009460026894684868044394600120587074
:100E50000020187030BD00002DE9F04104000F465D
:100E600077D0414E306800F00F00B84202D200F057
:100E700072F86ED120683D4D810712D5400703D529
:100E8000A86840F4E050A8602178080703D5A86856
:100E900040F46040A860A968A06821F0F001014317
:100EA000A9602078C1074CD56068012802D1296863
:100EB0008A0305E0022818BF032803D129688A01A4
:100EC00003D446E02A68910743D5A968890840EA17
:100ED0008100A860FFF74EFB8046A868616800F0BB
:100EE0000C00B0EB810F2CD0FFF744FBA0EB080007
:100EF00041F289329042F0D3032020E0207841076C
:100F000005D5A968E06821F4E0510143A960207883
:100F1000010706D5A868216920F4604040EAC100B5
:100F2000A860FFF753F9AA681149C2F30312895C5C
:100F3000104AC8401060002000F01EF80020BDE8F4
:100F4000F081306800F00F008742D7D200F003F83C
:100F5000D4D00120F3E73770316801F00F01B942B6
:100F60007047044800687047003C02400038024067
:100F7000081000080C00002038B50D4D0D4A2978E6
:100F800004464FF47A70B0FBF1F11068B0FBF1F059
:100F9000FFF74DFD50B9102C08D2002221464FF02A
:100FA000FF30FFF71DFDAC60002032BD012032BDD7
:100FB000000000200C0000200E48016841F4700180
:100FC000016000220C49086840F0010008608A6056
:100FD0000A480A6802400A60002209484860086816
:100FE00020F480200860CA604FF000600549086066
:100FF0007047000088ED00E000380240FFFFF6FE79
:101000001030002408ED00E00000000000000000A7
:10101000010203040607080930B501688468421814
:10102000416802EB5103C9070BD54C4409E012F9A2
:10103000011B12F8015B002904F8015B05D5491C6E
:10104000F9D19A42F3D10C3030BD491EF1D5F8E701
:1010500080B500F013F8BDE80140FFF715BD80B57D
:101060000448FFF731FBBDE8044020210248FFF7A8
:10107000DFBD00001000002000000240024841686F
:1010800002788918416070470000002010B50749B8
:1010900079441831064C7C44163404E00A68081D73
:1010A000114488470146A142F8D110BD2C00000030
:1010B000380000004EF68851CEF20001086840F476
:1010C00070000860BFF34F8FBFF36F8F4FF0007059
:1010D000E1EE100A7047000041FFFFFFE001000051
:1010E0001A0000000000002000F00BF8002801D0DA
:1010F000FFF7CCFF0020AFF30080FFF7B1FD00F059
:1011000002F80120704700F001B800000746384699
:1011100000F002F8FBE7000080B5AFF30080024A60
:1011200011001820ABBEFBE72600020001488047F3
:1011300001480047B90F00083D110008AFF30080D7
:10114000FFF7B8FFFFF7D0FFFFF7FEBFFFF7FEBFC7
:10115000FFF7FEBFFFF7FEBFFFF7FEBFFFF7FEBFC3
:10116000FFF7FEBFFFF7FEBFFFF7FEBFFFF7FEBFB3
:10117000FFF7FEBFFFF7FEBFFFF7FEBFFFF7FEBFA3
:10118000FFF7FEBFFFF7FEBFFFF7FEBFFFF7FEBF93
:10119000FFF7FEBFFFF7FEBFFFF7FEBFFFF7FEBF83
:1011A000FFF7FEBFFFF7FEBFFFF7FEBFFFF7FEBF73
:1011B000FFF7FEBFFFF7FEBFFFF7FEBFFFF7FEBF63
:1011C000FFF7FEBFFFF7FEBFFFF7FEBFFFF7FEBF53
:1011D000FFF7FEBFFFF7FEBFFFF7FEBFFFF7FEBF43
:1011E000FFF7FEBFFFF7FEBFFFF7FEBFFFF7FEBF33
:1011F000FFF7FEBFFFF7FEBFFFF7FEBFFFF7FEBF23
:10120000FFF7FEBFFFF7FEBFFFF7FEBFFFF7FEBF12
:10121000FFF7FEBFFFF7FEBFFFF7FEBFFFF7FEBF02
:10122000FFF7FEBFFFF7FEBFFFF7FEBFFFF7FEBFF2
:10123000FFF7FEBFFFF7FEBFFFF7FEBFFFF7FEBFE2
:10124000FFF7FEBFFFF7FEBFFFF7FEBFFFF7FEBFD2
:10125000FFF7FEBFFFF7FEBFFFF7FEBFFFF7FEBFC2
:10126000FFF7FEBFFFF7FEBFFFF7FEBFFFF7FEBFB2
:10127000FFF7FEBFFFF7FEBFFFF7FEBFFFF7FEBFA2
:10128000FFF7FEBFFFF7FEBFFFF7FEBFFFF7FEBF92
:10129000FFF7FEBFFFF7FEBFFFF7FEBFFFF7FEBF82
:1012A000FFF7FEBFFFF7FEBFFFF7FEBFFFF7FEBF72
:1012B000FFF7FEBFFFF7FEBFFFF7FEBF0001F9001B
:0912C0000010FC000124F4C3003D
:040000050800113DA1
:00000001FF
